S0190000335F70686173655F766F6C746D657465722E7372656327
S113000012C02CC02BC02AC029C028C027C026C0BB
S113001025C024C023C022C021C020C01FC01EC0D0
S11300201DC01CC01BC011241FBECFE5D4E0DEBF21
S1130030CDBF10E0A0E6B0E0EAEEF5E002C0059026
S11300400D92AC39B107D9F720E0ACE9B0E001C0BA
S11300501D92A63BB207E1F71AD1C5C2D1CF88B32E
S1130060806188BB00C000C088B38F7E88BB0895C0
S113007098B3907F98BB98B382958F70982B98BB58
S1130080EEDF0895CF93C82F88B3806288BB8C2F8E
S1130090EFDF8C2F8295807FEBDF88E38A95F1F781
S11300A000C0CF910895CF93C82F88B38F7D88BBAC
S11300B08C2FDEDF8C2F8295807FDADF83E38A95B5
S11300C0F1F700C0CF91089581E0EDDF83E397E07D
S11300D00197F1F7089587B38F6387BB88B3807C5A
S11300E088BB8FEF95E30197F1F700C0000080E330
S11300F0BFDF8FEF91E10197F1F700C00000AFDFA0
S113010089E993E00197F1F700C0A9DF89E993E059
S11301100197F1F700C080E2ABDF8FEF91E1019727
S1130120F1F700C0000088E2BEDF8CE0BCDF86E0AF
S1130130BADFCADF0895623059F018F4613031F043
S11301400895633039F0643039F00895805805C05B
S1130150805403C0805701C08053A5DF0895CF9316
S1130160DF93EC0102C021968DDF88818111FBCFE2
S1130170DF91CF91089580E487B987E886B908951F
S1130180877097B1987F892B87B986B1806486B9C7
S11301903699FECF84B195B10895FF920F931F93C2
S11301A0CF93DF93CDB7DEB7C85CD1090FB6F8940F
S11301B0DEBF0FBECDBFF82E00E010E00FC08F2DC4
S11301C0DFDFF801EE0FFF1F21E030E02C0F3D1FB1
S11301D0E20FF31F918380830F5F1F4F00351105DA
S11301E074F349815A8180E090E010C0FC01EE0F65
S11301F0FF1F21E030E02C0F3D1FE20FF31F208191
S113020031814217530708F4A901019681359105FC
S11302106CF35093A1004093A0003FEF84E39CE073
S1130220315080409040E1F700C000006091A00090
S11302307091A100072E000C880B990BB2D02CE80A
S11302403FE74DE85EE311D160939C0070939D00FD
S113025080939E0090939F0071D0DC01CB0190931A
S1130260A1008093A0004AE062EA70E089D1809105
S1130270A20090E0C853DF4F0FB6F894DEBF0FBE64
S1130280CDBFDF91CF911F910F91FF900895CF9330
S1130290DF9321DF61E080E04EDF80E690E05FDF06
S11302A02FEF84E39CE0215080409040E1F700C0B0
S11302B000000ADF8FE690E052DF5DDFC0E0D0E0AF
S11302C034C0CE016ADF209771F4FEDE61E080E085
S11302D032DF81E890E043DF68E080E02CDF82EAEF
S11302E090E03DDF21C0C130D10571F4EDDE61E065
S11302F080E021DF8AE890E032DF68E080E01BDF05
S113030082EA90E02CDF10C0C230D10591F4DCDE2B
S113031061E080E010DF83E990E021DF68E080E0C5
S11303200ADF82EA90E01BDF2196C330D1054CF24C
S1130330C5CF80E090E0DF91CF91089504D0689418
S1130340B1118DC0089570D088F09F5790F0B92FE7
S11303509927B751A0F0D1F0660F771F881F991F16
S11303601AF0BA95C9F712C0B13081F077D0B1E074
S1130370089574C0672F782F8827B85F39F0B93F84
S1130380CCF3869577956795B395D9F73EF4909518
S11303908095709561957F4F8F4F9F4F0895E89496
S11303A009C097FB3EF490958095709561957F4FB9
S11303B08F4F9F4F9923A9F0F92F96E9BB27939567
S11303C0F695879577956795B795F111F8CFFAF477
S11303D0BB0F11F460FF1BC06F5F7F4F8F4F9F4FA8
S11303E016C0882311F096E911C0772321F09EE806
S11303F0872F762F05C0662371F096E8862F70E06C
S113040060E02AF09A95660F771F881FDAF7880F45
S11304109695879597F9089557FD9058440F551F61
S113042059F05F3F71F04795880F97FB991F61F072
S11304309F3F79F087950895121613061406551FE9
S1130440F2CF4695F1DF08C0161617061806991F55
S1130450F1CF86957105610508940895E894BB274A
S113046066277727CB0197F908950BD078C069D018
S113047028F06ED018F0952309F05AC05FC01124FB
S1130480EECFCADFA0F3959FD1F3950F50E0551F2F
S1130490629FF001729FBB27F00DB11D639FAA27D5
S11304A0F00DB11DAA1F649F6627B00DA11D661F24
S11304B0829F2227B00DA11D621F739FB00DA11D45
S11304C0621F839FA00D611D221F749F3327A00DFF
S11304D0611D231F849F600D211D822F762F6A2F9B
S11304E011249F5750408AF0E1F088234AF0EE0F20
S11304F0FF1FBB1F661F771F881F91505040A9F72D
S11305009E3F510570F014C0AACF5F3FECF3983EB4
S1130510DCF3869577956795B795F795E7959F5F93
S1130520C1F7FE2B880F911D9695879597F908952D
S113053097F99F6780E870E060E008959FEF80EC92
S1130540089500240A941616170618060906089535
S113055000240A9412161306140605060895092E9B
S11305600394000C11F4882352F0BB0F40F4BF2B0A
S113057011F460FF04C06F5F7F4F8F4F9F4F08954A
S1130580BB274A3031F4992322F4BDE2909581953A
S11305909F4F01C0BB27FB015527AA27880F991F2E
S11305A0AA1FA41710F0A41B83955051B9F7A05D9E
S11305B0AA3308F0A95DA193009779F7B111B1931B
S11305C01192CB0100C0DC01FC01672F71917723EC
S11305D0E1F7329704C07C916D9370836291AE17FA
S10D05E0BF07C8F30895F894FFCF95
S11305EA414320564F4C544D455445522E2E0069D2
S11305FA6E7469616C6973696E67204144432E2E77
S113060A005068617365313A20005068617365323D
S10F061A3A20005068617365333A2000F8
S9030000FC
